{
  "_format": "hh-sol-artifact-1",
  "contractName": "Marketplace",
  "sourceName": "src/backend/contracts/Marketplace.sol",
  "abi": [
    {
      "inputs": [
        {
          "internalType": "uint256",
          "name": "_feePercent",
          "type": "uint256"
        }
      ],
      "stateMutability": "nonpayable",
      "type": "constructor"
    },
    {
      "inputs": [],
      "name": "feePercent",
      "outputs": [
        {
          "internalType": "uint256",
          "name": "",
          "type": "uint256"
        }
      ],
      "stateMutability": "view",
      "type": "function"
    },
    {
      "inputs": [
        {
          "internalType": "uint256",
          "name": "_itemId",
          "type": "uint256"
        }
      ],
      "name": "getTotalPrice",
      "outputs": [
        {
          "internalType": "uint256",
          "name": "",
          "type": "uint256"
        }
      ],
      "stateMutability": "view",
      "type": "function"
    },
    {
      "inputs": [],
      "name": "itemCount",
      "outputs": [
        {
          "internalType": "uint256",
          "name": "",
          "type": "uint256"
        }
      ],
      "stateMutability": "view",
      "type": "function"
    },
    {
      "inputs": [
        {
          "internalType": "uint256",
          "name": "",
          "type": "uint256"
        }
      ],
      "name": "items",
      "outputs": [
        {
          "internalType": "uint256",
          "name": "itemId",
          "type": "uint256"
        },
        {
          "internalType": "contract IERC721",
          "name": "nft",
          "type": "address"
        },
        {
          "internalType": "uint256",
          "name": "tokenId",
          "type": "uint256"
        },
        {
          "internalType": "uint256",
          "name": "price",
          "type": "uint256"
        },
        {
          "internalType": "address payable",
          "name": "seller",
          "type": "address"
        },
        {
          "internalType": "bool",
          "name": "sold",
          "type": "bool"
        }
      ],
      "stateMutability": "view",
      "type": "function"
    },
    {
      "inputs": [
        {
          "internalType": "contract IERC721",
          "name": "_nft",
          "type": "address"
        },
        {
          "internalType": "uint256",
          "name": "_tokenId",
          "type": "uint256"
        },
        {
          "internalType": "uint256",
          "name": "_price",
          "type": "uint256"
        }
      ],
      "name": "makeItem",
      "outputs": [],
      "stateMutability": "nonpayable",
      "type": "function"
    },
    {
      "inputs": [
        {
          "internalType": "uint256",
          "name": "_itemId",
          "type": "uint256"
        }
      ],
      "name": "purchaseItem",
      "outputs": [],
      "stateMutability": "payable",
      "type": "function"
    }
  ],
  "bytecode": "0x60c060405234801561001057600080fd5b50604051610f79380380610f7983398181016040528101906100329190610094565b600160008190555080608081815250503373ffffffffffffffffffffffffffffffffffffffff1660a08173ffffffffffffffffffffffffffffffffffffffff1660601b81525050506100de565b60008151905061008e816100c7565b92915050565b6000602082840312156100a657600080fd5b60006100b48482850161007f565b91505092915050565b6000819050919050565b6100d0816100bd565b81146100db57600080fd5b50565b60805160a05160601c610e6c61010d600039600061045301526000818161017c015261022d0152610e6c6000f3fe6080604052600436106100555760003560e01c80636bfb0d011461005a5780637fd6f15c14610085578063bfb231d2146100b0578063ca7dd375146100f2578063d38ea5bf1461012f578063fa00afc71461014b575b600080fd5b34801561006657600080fd5b5061006f610174565b60405161007c9190610a62565b60405180910390f35b34801561009157600080fd5b5061009a61017a565b6040516100a79190610a62565b60405180910390f35b3480156100bc57600080fd5b506100d760048036038101906100d29190610868565b61019e565b6040516100e996959493929190610a7d565b60405180910390f35b3480156100fe57600080fd5b5061011960048036038101906101149190610868565b610227565b6040516101269190610a62565b60405180910390f35b61014960048036038101906101449190610868565b61028a565b005b34801561015757600080fd5b50610172600480360381019061016d9190610819565b610588565b005b60015481565b7f000000000000000000000000000000000000000000000000000000000000000081565b60026020528060005260406000206000915090508060000154908060010160009054906101000a900473ffffffffffffffffffffffffffffffffffffffff16908060020154908060030154908060040160009054906101000a900473ffffffffffffffffffffffffffffffffffffffff16908060040160149054906101000a900460ff16905086565b600060647f000000000000000000000000000000000000000000000000000000000000000060646102589190610aef565b60026000858152602001908152602001600020600301546102799190610b76565b6102839190610b45565b9050919050565b600260005414156102d0576040517f08c379a00000000000000000000000000000000000000000000000000000000081526004016102c790610a22565b60405180910390fd5b600260008190555060006102e382610227565b9050600060026000848152602001908152602001600020905060008311801561030e57506001548311155b61034d576040517f08c379a0000000000000000000000000000000000000000000000000000000008152600401610344906109e2565b60405180910390fd5b8060040160149054906101000a900460ff161561039f576040517f08c379a000000000000000000000000000000000000000000000000000000000815260040161039690610a02565b60405180910390fd5b813410156103e2576040517f08c379a00000000000000000000000000000000000000000000000000000000081526004016103d9906109c2565b60405180910390fd5b8060040160009054906101000a900473ffffffffffffffffffffffffffffffffffffffff1673ffffffffffffffffffffffffffffffffffffffff166108fc82600301549081150290604051600060405180830381858888f19350505050158015610450573d6000803e3d6000fd5b507f000000000000000000000000000000000000000000000000000000000000000073ffffffffffffffffffffffffffffffffffffffff166108fc82600301548461049b9190610bd0565b9081150290604051600060405180830381858888f193505050501580156104c6573d6000803e3d6000fd5b5060018160040160146101000a81548160ff0219169083151502179055508060010160009054906101000a900473ffffffffffffffffffffffffffffffffffffffff1673ffffffffffffffffffffffffffffffffffffffff166323b872dd303384600201546040518463ffffffff1660e01b81526004016105499392919061098b565b600060405180830381600087803b15801561056357600080fd5b505af1158015610577573d6000803e3d6000fd5b505050505050600160008190555050565b600260005414156105ce576040517f08c379a00000000000000000000000000000000000000000000000000000000081526004016105c590610a22565b60405180910390fd5b600260008190555060008111610619576040517f08c379a000000000000000000000000000000000000000000000000000000000815260040161061090610a42565b60405180910390fd5b6001600081548092919061062c90610c94565b91905055508273ffffffffffffffffffffffffffffffffffffffff166323b872dd3330856040518463ffffffff1660e01b815260040161066e9392919061098b565b600060405180830381600087803b15801561068857600080fd5b505af115801561069c573d6000803e3d6000fd5b505050506040518060c0016040528060015481526020018473ffffffffffffffffffffffffffffffffffffffff1681526020018381526020018281526020013373ffffffffffffffffffffffffffffffffffffffff168152602001600015158152506002600060015481526020019081526020016000206000820151816000015560208201518160010160006101000a81548173ffffffffffffffffffffffffffffffffffffffff021916908373ffffffffffffffffffffffffffffffffffffffff160217905550604082015181600201556060820151816003015560808201518160040160006101000a81548173ffffffffffffffffffffffffffffffffffffffff021916908373ffffffffffffffffffffffffffffffffffffffff16021790555060a08201518160040160146101000a81548160ff0219169083151502179055509050506001600081905550505050565b6000813590506107fe81610e08565b92915050565b60008135905061081381610e1f565b92915050565b60008060006060848603121561082e57600080fd5b600061083c868287016107ef565b935050602061084d86828701610804565b925050604061085e86828701610804565b9150509250925092565b60006020828403121561087a57600080fd5b600061088884828501610804565b91505092915050565b61089a81610c16565b82525050565b6108a981610c04565b82525050565b6108b881610c28565b82525050565b6108c781610c70565b82525050565b60006108da601283610ade565b91506108e582610d3b565b602082019050919050565b60006108fd601283610ade565b915061090882610d64565b602082019050919050565b6000610920601483610ade565b915061092b82610d8d565b602082019050919050565b6000610943601f83610ade565b915061094e82610db6565b602082019050919050565b6000610966601c83610ade565b915061097182610ddf565b602082019050919050565b61098581610c66565b82525050565b60006060820190506109a060008301866108a0565b6109ad60208301856108a0565b6109ba604083018461097c565b949350505050565b600060208201905081810360008301526109db816108cd565b9050919050565b600060208201905081810360008301526109fb816108f0565b9050919050565b60006020820190508181036000830152610a1b81610913565b9050919050565b60006020820190508181036000830152610a3b81610936565b9050919050565b60006020820190508181036000830152610a5b81610959565b9050919050565b6000602082019050610a77600083018461097c565b92915050565b600060c082019050610a92600083018961097c565b610a9f60208301886108be565b610aac604083018761097c565b610ab9606083018661097c565b610ac66080830185610891565b610ad360a08301846108af565b979650505050505050565b600082825260208201905092915050565b6000610afa82610c66565b9150610b0583610c66565b9250827fffffffffffffffffffffffffffffffffffffffffffffffffffffffffffffffff03821115610b3a57610b39610cdd565b5b828201905092915050565b6000610b5082610c66565b9150610b5b83610c66565b925082610b6b57610b6a610d0c565b5b828204905092915050565b6000610b8182610c66565b9150610b8c83610c66565b9250817fffffffffffffffffffffffffffffffffffffffffffffffffffffffffffffffff0483118215151615610bc557610bc4610cdd565b5b828202905092915050565b6000610bdb82610c66565b9150610be683610c66565b925082821015610bf957610bf8610cdd565b5b828203905092915050565b6000610c0f82610c46565b9050919050565b6000610c2182610c46565b9050919050565b60008115159050919050565b6000610c3f82610c04565b9050919050565b600073ffffffffffffffffffffffffffffffffffffffff82169050919050565b6000819050919050565b6000610c7b82610c82565b9050919050565b6000610c8d82610c46565b9050919050565b6000610c9f82610c66565b91507fffffffffffffffffffffffffffffffffffffffffffffffffffffffffffffffff821415610cd257610cd1610cdd565b5b600182019050919050565b7f4e487b7100000000000000000000000000000000000000000000000000000000600052601160045260246000fd5b7f4e487b7100000000000000000000000000000000000000000000000000000000600052601260045260246000fd5b7f6e6f7420656e6f7567682062616c616e63650000000000000000000000000000600082015250565b7f6974656d20646f65736e27742065786973740000000000000000000000000000600082015250565b7f6974656d20697320616c726561647920736f6c64000000000000000000000000600082015250565b7f5265656e7472616e637947756172643a207265656e7472616e742063616c6c00600082015250565b7f5072696365206d7573742062652067726561746572207468616e203000000000600082015250565b610e1181610c34565b8114610e1c57600080fd5b50565b610e2881610c66565b8114610e3357600080fd5b5056fea2646970667358221220a7049b869dcbe18631cbf9632a340d56b9b49cfd93aa5c876a32a4501505107864736f6c63430008040033",
  "linkReferences": {},
  "deployedLinkReferences": {}
}